:020000040800F2
:1000000000200020B90500080506000805060008C4
:1000100000000000000000000000000000000000E0
:1000200000000000000000000000000005060008BD
:10003000000000000000000005060008050600089A
:100040000506000805060008050600080506000864
:100050000506000805060008050600080506000854
:100060000506000805060008050600080506000844
:100070000506000805060008050600080506000834
:100080000506000805060008000000000506000837
:100090000506000805060008050600080506000814
:1000A0000506000805060008050600080506000804
:1000B000050600080000000005060008000000001A
:1000C0005FF808F180B582B000AF78600A1CFB1CB5
:1000D0001A70FB1C1B78002B06D0084B074A51698D
:1000E0007A680A435A6106E0044B044A5269796807
:1000F000C9430A405A61BD4602B080BD00100240AB
:1001000080B582B000AF3B1D04221A703B1D022255
:100110005A703B1D00229A703B1D181C00F040F8DD
:100120000120012100F0B8F91B4B181C00F012FA55
:10013000FA23DB00181C00F023FA0220042100F04F
:10014000ABF9164B181C00F005FAFA23DB00181C5B
:1001500000F016FA00F0F8F800200E2100F000F987
:100160000120062100F098F9532000F0BFF9542037
:1001700000F0BCF94D2000F0B9F9332000F0B6F9D9
:10018000322000F0B3F9FA23DB00181C00F0F8F974
:1001900000F0DAF8C4E7C046B4090008C009000856
:1001A00080B584B000AF78607B681A787B685B7834
:1001B0001343DAB27B689B781343DAB23B1C0E33ED
:1001C00020210A431A7000F05DF82D4A80231B029B
:1001D000101C191C002200F085FB294A80239B017A
:1001E000101C191C002200F07DFB0F2000F0C8F944
:1001F0003B1C0F3300221A700CE0032000F0DAF8E9
:10020000052000F0BDF93B1C0F333A1C0F32127869
:1002100001321A703B1C0F331B78022BEDD90220E0
:1002200000F0C8F8052000F0ABF93B1C0E331B783A
:100230000020191C00F094F83B1C0E330C221A709D
:100240003B1C0E331B780020191C00F089F83B1C66
:100250000E3301221A703B1C0E331B780020191C30
:1002600000F07EF83B1C0E3306221A703B1C0E3346
:100270001B780020191C00F073F8BD4604B080BD47
:100280000004004880B582B000AFC023DB02181C18
:100290000121FFF717FF3B1C01221A713B1C0022B2
:1002A0009A713B1C0222DA713B1C03225A713B1CDF
:1002B000802212021A60234A3B1C101C191C00F0F9
:1002C00059FA3B1C802292011A601E4A3B1C101CEA
:1002D000191C00F04FFA3B1C802252001A60902338
:1002E000DA053B1C101C191C00F044FA3B1C802250
:1002F00092001A609023DA053B1C101C191C00F0B8
:1003000039FA3B1C8022D2001A609023DA053B1C8C
:10031000101C191C00F02EFA3B1C802212011A60DE
:100320009023DA053B1C101C191C00F023FA054A27
:1003300080231B02101C191C00F0B8FABD4602B045
:1003400080BDC0460004004880B500AF00200121F8
:1003500000F006F80020022100F002F8BD4680BD42
:1003600080B582B000AF0A1CFB1D011C1970BB1DBB
:100370001A700F4980239A01FB1D1B78081C111C61
:100380001A1C00F0AFFA012000F0FAF8BB1D1B7830
:100390001B09DBB2181C00F00DF8BB1D1A780F23E7
:1003A0001340DBB2181C00F005F8BD4602B080BD5A
:1003B0000004004880B582B000AF021CFB1D1A701B
:1003C000FB1D1A7801231340DBB29022D105802255
:1003D0005200081C111C1A1C00F084FAFB1D1B782B
:1003E0005B08DAB201231340DBB29022D1058022F0
:1003F0009200081C111C1A1C00F074FAFB1D1B78DB
:100400009B08DAB201231340DBB29022D10580228F
:10041000D200081C111C1A1C00F064FAFB1D1B788A
:10042000DB08DAB201231340DBB29022D10580222F
:100430001201081C111C1A1C00F054FA012000F0D3
:100440009FF80A4A80231B02101C191C00F02EFA88
:10045000012000F095F8054A80231B02101C191C8E
:1004600000F032FABD4602B080BDC046000400482C
:1004700080B582B000AF021CFB1D1A70FB1D1B78FB
:10048000802252421343DBB20020191CFFF768FFA1
:10049000BD4602B080BDC04680B584B000AF0A1C26
:1004A000FB1D011C1970BB1D1A70FB1D1B78012B55
:1004B00004D03B1C0F3340221A7003E03B1C0F3367
:1004C00000221A70BA1D3B1C0F3312781B78D31808
:1004D000DAB23B1C0F33013A1A703B1C0F331B7806
:1004E000181CFFF7C5FFBD4604B080BD80B582B0C3
:1004F00000AF021CFB1D1A70FB1D1B78082B1AD0C5
:1005000002DC072B05D01BE00A2B0FD00C2B05D0EB
:1005100016E001200121FFF7BFFF18E000200121B4
:10052000FFF71EFF022000F02BF810E0012002214F
:10053000FFF7B2FF0BE000201021FFF711FF06E0EC
:10054000FB1D1B780120191CFFF70AFFC046BD46A2
:1005500002B080BD80B584B000AF78607B68FB607E
:1005600007E0FB681B78181CFFF7C0FFFB6801332E
:10057000FB60FB681B78002BF3D1BD4604B080BD47
:1005800080B584B000AF78600A4B1B687A6853432B
:10059000181CFA23990000F0BDF9031CFB6002E06F
:1005A000FB68013BFB60FB68002BF9D1BD4604B042
:1005B00080BDC046000000200C488546002103E0B5
:1005C0000B4B5B58435004310A480B4B42189A427C
:1005D000F6D30A4A02E0002313600432084B9A4221
:1005E000F9D300F011F8FFF78BFDFEE700200020A3
:1005F000C80900080000002014000020140000209A
:1006000014000020FEE7000080B500AF1B4B1B4A22
:10061000126801210A431A60184B184A5168184A97
:100620000A405A60154B154A1168164A0A401A606A
:10063000124B124A1168144A0A401A600F4B0F4AB3
:100640005168124A0A405A600C4B0C4AD26A0F2178
:100650008A43DA62094B094A116B0D4A0A401A6350
:10066000064B064A526B01218A435A63034B002210
:100670009A6000F00FF8BD4680BDC04600100240F1
:100680000CB8FFF8FFFFF6FEFFFFFBFFFFFFC0FF08
:10069000ACFEFFFF80B582B000AF00237B6000237B
:1006A0003B60314B304A1268802149020A431A608C
:1006B0002D4B1A6880239B0213403B607B680133FB
:1006C0007B603B68002B04D17A68A023DB019A424F
:1006D000EED1254B1A6880239B02134002D00123E0
:1006E0003B6001E000233B603B68012B38D11F4B8E
:1006F00011221A601C4B1C4A52685A601A4B1A4A43
:1007000052685A60184B184A5168194A0A405A6090
:10071000154B154A5268882149030A435A60124B07
:10072000114A1268802149040A431A60C0460E4BE0
:100730001A6880239B041340F9D00B4B0A4A526875
:1007400003218A435A60084B074A526802210A4330
:100750005A60C046044B5A680C231340082BF9D149
:10076000BD4602B080BDC0460010024000200240DD
:10077000FFFFC0FF80B586B000AF7860396000230E
:100780007B6100233B610023FB6000237B6185E0EC
:100790007B690122101C9840031C3B613B681B686D
:1007A0003A691340FB60FA683B699A4273D13B682F
:1007B0001B79012B03D03B681B79022B38D17B6856
:1007C0009B687A6952000321081C9040021CD243A6
:1007D0001A407B689A607B689A683B685B79191C51
:1007E0007B695B00081C9840031C1A437B689A6075
:1007F0007B689B889BB27A6992B20121081C904069
:10080000021C92B2D24392B213409AB27B689A8091
:100810007B689B889AB23B689B79191C7B699BB269
:10082000081C9840031C9BB213439AB27B689A80C1
:100830007B681B687A6952000321081C9040021CE7
:10084000D2431A407B681A607B681A683B681B7940
:10085000191C7B695B00081C9840031C1A437B68C9
:100860001A607B68DB687A6992B252000321081C27
:100870009040021CD2431A407B68DA607B68DA68D9
:100880003B68DB79191C7B695B00081C9840031CE2
:100890001A437B68DA607B6901337B617B690F2BCC
:1008A00000D875E7BD4606B080BDC04680B582B0B1
:1008B00000AF78600A1CBB1C1A80BB1C1A887B68BE
:1008C0009A61BD4602B080BD80B582B000AF78604D
:1008D0000A1CBB1C1A807B68BA1C12881A85BD468C
:1008E00002B080BD80B582B000AF7860BB1C1980BB
:1008F0007B1C1A707B1C1B78002B04D0BB1C1A8835
:100900007B689A6103E07B68BA1C12881A85BD4631
:1009100002B080BD002934D00123002210B48842E7
:100920002CD301242407A14204D2814202D209011E
:100930001B01F8E7E400A14204D2814202D249003F
:100940005B00F8E7884201D3401A1A434C08A042E2
:1009500002D3001B5C0822438C08A04202D3001B78
:100960009C082243CC08A04202D3001BDC0822438F
:10097000002803D01B0901D00909E3E7101C10BCB3
:100980007047002801D00020C04307B4024802A1EC
:100990004018029003BDC046190000000029F0D0A5
:1009A00003B5FFF7B9FF0EBC4243891A1847C0468A
:1009B0007047C04641797461632044696C656B007F
:0809C00044656E656D650000E1
:1009C800006CDC02000000000000000001020304CB
:0409D80006070809FD
:0400000508000000EF
:00000001FF
