:020000040800F2
:1000000000200020A5050008F1050008F105000802
:1000100000000000000000000000000000000000E0
:10002000000000000000000000000000F1050008D2
:100030000000000000000000F1050008F1050008C4
:10004000F1050008F1050008F1050008F1050008B8
:10005000F1050008F1050008F1050008F1050008A8
:10006000F1050008F1050008F1050008F105000898
:10007000F1050008F1050008F1050008F105000888
:10008000F1050008F105000800000000F105000876
:10009000F1050008F1050008F1050008F105000868
:1000A000F1050008F1050008F1050008F105000858
:1000B000F105000800000000F10500080000000044
:1000C0005FF808F180B582B000AF78600A1CFB1CB5
:1000D0001A70FB1C1B78002B06D0084B074A51698D
:1000E0007A680A435A6106E0044B044A5269796807
:1000F000C9430A405A61BD4602B080BD00100240AB
:1001000080B582B000AF3B1D04221A703B1D022255
:100110005A703B1D00229A703B1D181C00F040F8DD
:100120000120012100F0AEF91B4B181C00F008FA69
:10013000FA23DB00181C00F019FA0220042100F059
:10014000A1F9164B181C00F0FBF9FA23DB00181C70
:1001500000F00CFA00F0F4F800200E2100F0FCF89A
:100160000120062100F08EF9532000F0B5F954204B
:1001700000F0B2F94D2000F0AFF9332000F0ACF9F7
:10018000322000F0A9F9FA23DB00181C00F0EEF988
:1001900000F0D6F8C4E7C046A0090008AC09000882
:1001A00080B584B000AF78607B681A787B685B7834
:1001B0001343DAB27B689B781343DAB23B1C0E33ED
:1001C00020210A431A7000F05DF82D4A80231B029B
:1001D000101C191C002200F07BFB294A80239B0184
:1001E000101C191C002200F073FB0F2000F0BEF958
:1001F0003B1C0F3300221A700CE0032000F0D6F8ED
:10020000052000F0B3F93B1C0F333A1C0F32127873
:1002100001321A703B1C0F331B78022BEDD90220E0
:1002200000F0C4F8052000F0A1F93B1C0E331B7848
:100230000020191C00F090F83B1C0E330C221A70A1
:100240003B1C0E331B780020191C00F085F83B1C6A
:100250000E3301221A703B1C0E331B780020191C30
:1002600000F07AF83B1C0E3306221A703B1C0E334A
:100270001B780020191C00F06FF8BD4604B080BD4B
:100280000004004880B582B000AFC0231B03181CD7
:100290000121FFF717FF3B1C01221A713B1C0022B2
:1002A0009A713B1C0222DA713B1C03225A713B1CDF
:1002B000802212021A60204A3B1C101C191C00F0FC
:1002C0004FFA3B1C802292011A601B4A3B1C101CF7
:1002D000191C00F045FA3B1C40221A60174A3B1CCF
:1002E000101C191C00F03CFA3B1C80221A60134AB7
:1002F0003B1C101C191C00F033FA3B1C80225200DE
:100300001A600E4A3B1C101C191C00F029FA3B1CF9
:10031000802292001A60094A3B1C101C191C00F034
:100320001FFA054A80231B02101C191C00F0B4FAA6
:10033000BD4602B080BDC046000400480008004829
:1003400080B500AF0020012100F006F80020022156
:1003500000F002F8BD4680BD80B582B000AF0A1C37
:10036000FB1D011C1970BB1D1A700F4980239A01D7
:10037000FB1D1B78081C111C1A1C00F0A9FA012097
:1003800000F0F4F8BB1D1B781B09DBB2181C00F051
:100390000DF8BB1D1A780F231340DBB2181C00F0B8
:1003A00005F8BD4602B080BD0004004880B582B0AB
:1003B00000AF021CFB1D1A70FB1D1A7801231340AD
:1003C000DBB2244A101C40211A1C00F081FAFB1DEC
:1003D0001B785B08DAB201231340DBB21D4A101C04
:1003E00080211A1C00F074FAFB1D1B789B08DAB2FE
:1003F00001231340DBB2174980225200081C111C54
:100400001A1C00F065FAFB1D1B78DB08DAB2012329
:100410001340DBB20F4980229200081C111C1A1CE9
:1004200000F056FA012000F0A1F80B4A80231B02CD
:10043000101C191C00F030FA012000F097F8064A51
:1004400080231B02101C191C00F034FABD4602B0B8
:1004500080BDC046000800480004004880B582B056
:1004600000AF021CFB1D1A70FB1D1B78802252423C
:100470001343DBB20020191CFFF76EFFBD4602B02C
:1004800080BDC04680B584B000AF0A1CFB1D011CB6
:100490001970BB1D1A70FB1D1B78012B04D03B1C6F
:1004A0000F3340221A7003E03B1C0F3300221A70F6
:1004B000BA1D3B1C0F3312781B78D318DAB23B1CE1
:1004C0000F33013A1A703B1C0F331B78181CFFF7CF
:1004D000C5FFBD4604B080BD80B582B000AF021C30
:1004E000FB1D1A70FB1D1B78082B1AD002DC072B92
:1004F00005D01BE00A2B0FD00C2B05D016E00120F5
:100500000121FFF7BFFF18E000200121FFF724FFC2
:10051000022000F02BF810E001200221FFF7B2FFCB
:100520000BE000201021FFF717FF06E0FB1D1B78F2
:100530000120191CFFF710FFC046BD4602B080BD68
:1005400080B584B000AF78607B68FB6007E0FB6833
:100550001B78181CFFF7C0FFFB680133FB60FB68CA
:100560001B78002BF3D1BD4604B080BD80B584B0AC
:1005700000AF78600A4B1B687A685343181CFA2353
:10058000990000F0BDF9031CFB6002E0FB68013B31
:10059000FB60FB68002BF9D1BD4604B080BDC046AE
:1005A000000000200C488546002103E00B4B5B58FF
:1005B000435004310A480B4B42189A42F6D30A4A78
:1005C00002E0002313600432084B9A42F9D300F092
:1005D00011F8FFF795FDFEE700200020B4090008A0
:1005E000000000201400002014000020140000204F
:1005F000FEE7000080B500AF1B4B1B4A12680121CB
:100600000A431A60184B184A5168184A0A405A603F
:10061000154B154A1168164A0A401A60124B124AC5
:100620001168144A0A401A600F4B0F4A5168124A67
:100630000A405A600C4B0C4AD26A0F218A43DA6294
:10064000094B094A116B0D4A0A401A63064B064AC8
:10065000526B01218A435A63034B00229A6000F0D7
:100660000FF8BD4680BDC046001002400CB8FFF830
:10067000FFFFF6FEFFFFFBFFFFFFC0FFACFEFFFF2B
:1006800080B582B000AF00237B6000233B60314B1C
:10069000304A1268802149020A431A602D4B1A68B9
:1006A00080239B0213403B607B6801337B603B6887
:1006B000002B04D17A68A023DB019A42EED1254BAE
:1006C0001A6880239B02134002D001233B6001E0A3
:1006D00000233B603B68012B38D11F4B11221A606D
:1006E0001C4B1C4A52685A601A4B1A4A52685A608C
:1006F000184B184A5168194A0A405A60154B154A56
:100700005268882149030A435A60124B114A126801
:10071000802149040A431A60C0460E4B1A688023A0
:100720009B041340F9D00B4B0A4A526803218A43B9
:100730005A60084B074A526802210A435A60C04671
:10074000044B5A680C231340082BF9D1BD4602B064
:1007500080BDC0460010024000200240FFFFC0FFE5
:1007600080B586B000AF7860396000237B610023DC
:100770003B610023FB6000237B6185E07B690122F4
:10078000101C9840031C3B613B681B683A6913408E
:10079000FB60FA683B699A4273D13B681B79012B75
:1007A00003D03B681B79022B38D17B689B687A6940
:1007B00052000321081C9040021CD2431A407B685F
:1007C0009A607B689A683B685B79191C7B695B005F
:1007D000081C9840031C1A437B689A607B689B88BE
:1007E0009BB27A6992B20121081C9040021C92B21D
:1007F000D24392B213409AB27B689A807B689B88FE
:100800009AB23B689B79191C7B699BB2081C984083
:10081000031C9BB213439AB27B689A807B681B6867
:100820007A6952000321081C9040021CD2431A40EE
:100830007B681A607B681A683B681B79191C7B69A6
:100840005B00081C9840031C1A437B681A607B6895
:10085000DB687A6992B252000321081C9040021CA6
:10086000D2431A407B68DA607B68DA683B68DB79E0
:10087000191C7B695B00081C9840031C1A437B68A9
:10088000DA607B6901337B617B690F2B00D875E7E8
:10089000BD4606B080BDC04680B582B000AF78606E
:1008A0000A1CBB1C1A80BB1C1A887B689A61BD4657
:1008B00002B080BD80B582B000AF78600A1CBB1C5E
:1008C0001A807B68BA1C12881A85BD4602B080BDAA
:1008D00080B582B000AF7860BB1C19807B1C1A7099
:1008E0007B1C1B78002B04D0BB1C1A887B689A6188
:1008F00003E07B68BA1C12881A85BD4602B080BD31
:10090000002934D00123002210B488422CD30124C2
:100910002407A14204D2814202D209011B01F8E757
:10092000E400A14204D2814202D249005B00F8E710
:10093000884201D3401A1A434C08A04202D3001B3C
:100940005C0822438C08A04202D3001B9C0822436F
:10095000CC08A04202D3001BDC082243002803D0AD
:100960001B0901D00909E3E7101C10BC70470028DF
:1009700001D00020C04307B4024802A140180290F1
:1009800003BDC046190000000029F0D003B5FFF7F1
:10099000B9FF0EBC4243891A1847C0467047C0468B
:1009A00041797461632044696C656B0044656E65D0
:0409B0006D65000071
:1009B400006CDC02000000000000000001020304DF
:0409C4000607080911
:0400000508000000EF
:00000001FF
